{
  "contractName": "Hello",
  "abi": [
    {
      "anonymous": false,
      "inputs": [
        {
          "indexed": true,
          "internalType": "address",
          "name": "previousOwner",
          "type": "address"
        },
        {
          "indexed": true,
          "internalType": "address",
          "name": "newOwner",
          "type": "address"
        }
      ],
      "name": "OwnershipTransferred",
      "type": "event"
    },
    {
      "inputs": [],
      "name": "owner",
      "outputs": [
        {
          "internalType": "address",
          "name": "",
          "type": "address"
        }
      ],
      "stateMutability": "view",
      "type": "function",
      "constant": true
    },
    {
      "inputs": [],
      "name": "renounceOwnership",
      "outputs": [],
      "stateMutability": "nonpayable",
      "type": "function"
    },
    {
      "inputs": [
        {
          "internalType": "address",
          "name": "newOwner",
          "type": "address"
        }
      ],
      "name": "transferOwnership",
      "outputs": [],
      "stateMutability": "nonpayable",
      "type": "function"
    },
    {
      "inputs": [],
      "name": "greet",
      "outputs": [
        {
          "internalType": "string",
          "name": "",
          "type": "string"
        }
      ],
      "stateMutability": "view",
      "type": "function",
      "constant": true
    },
    {
      "inputs": [
        {
          "internalType": "string",
          "name": "_newGreetie",
          "type": "string"
        }
      ],
      "name": "setGreetie",
      "outputs": [],
      "stateMutability": "nonpayable",
      "type": "function"
    }
  ],
  "bytecode": "0x60806040526040518060400160405280600581526020017f48656c6c6f0000000000000000000000000000000000000000000000000000008152506001908051906020019062000051929190620001ee565b506040518060400160405280600281526020017f2c20000000000000000000000000000000000000000000000000000000000000815250600290805190602001906200009f929190620001ee565b506040518060400160405280600681526020017f576f726c6421000000000000000000000000000000000000000000000000000081525060039080519060200190620000ed929190620001ee565b50348015620000fb57600080fd5b506200011c620001106200012260201b60201c565b6200012a60201b60201c565b62000303565b600033905090565b60008060009054906101000a900473ffffffffffffffffffffffffffffffffffffffff169050816000806101000a81548173ffffffffffffffffffffffffffffffffffffffff021916908373ffffffffffffffffffffffffffffffffffffffff1602179055508173ffffffffffffffffffffffffffffffffffffffff168173ffffffffffffffffffffffffffffffffffffffff167f8be0079c531659141344cd1fd0a4f28419497f9722a3daafe3b4186f6b6457e060405160405180910390a35050565b828054620001fc906200029e565b90600052602060002090601f0160209004810192826200022057600085556200026c565b82601f106200023b57805160ff19168380011785556200026c565b828001600101855582156200026c579182015b828111156200026b5782518255916020019190600101906200024e565b5b5090506200027b91906200027f565b5090565b5b808211156200029a57600081600090555060010162000280565b5090565b60006002820490506001821680620002b757607f821691505b60208210811415620002ce57620002cd620002d4565b5b50919050565b7f4e487b7100000000000000000000000000000000000000000000000000000000600052602260045260246000fd5b61094380620003136000396000f3fe608060405234801561001057600080fd5b50600436106100575760003560e01c8063715018a61461005c5780638da5cb5b14610066578063cfae321714610084578063f2fde38b146100a2578063fe3cb418146100be575b600080fd5b6100646100da565b005b61006e610162565b60405161007b91906106d5565b60405180910390f35b61008c61018b565b60405161009991906106f0565b60405180910390f35b6100bc60048036038101906100b7919061051d565b6101b9565b005b6100d860048036038101906100d3919061054a565b6102b1565b005b6100e2610343565b73ffffffffffffffffffffffffffffffffffffffff16610100610162565b73ffffffffffffffffffffffffffffffffffffffff1614610156576040517f08c379a000000000000000000000000000000000000000000000000000000000815260040161014d90610732565b60405180910390fd5b610160600061034b565b565b60008060009054906101000a900473ffffffffffffffffffffffffffffffffffffffff16905090565b60606001600260036040516020016101a5939291906106a4565b604051602081830303815290604052905090565b6101c1610343565b73ffffffffffffffffffffffffffffffffffffffff166101df610162565b73ffffffffffffffffffffffffffffffffffffffff1614610235576040517f08c379a000000000000000000000000000000000000000000000000000000000815260040161022c90610732565b60405180910390fd5b600073ffffffffffffffffffffffffffffffffffffffff168173ffffffffffffffffffffffffffffffffffffffff1614156102a5576040517f08c379a000000000000000000000000000000000000000000000000000000000815260040161029c90610712565b60405180910390fd5b6102ae8161034b565b50565b6102b9610343565b73ffffffffffffffffffffffffffffffffffffffff166102d7610162565b73ffffffffffffffffffffffffffffffffffffffff161461032d576040517f08c379a000000000000000000000000000000000000000000000000000000000815260040161032490610732565b60405180910390fd5b81816003919061033e92919061040f565b505050565b600033905090565b60008060009054906101000a900473ffffffffffffffffffffffffffffffffffffffff169050816000806101000a81548173ffffffffffffffffffffffffffffffffffffffff021916908373ffffffffffffffffffffffffffffffffffffffff1602179055508173ffffffffffffffffffffffffffffffffffffffff168173ffffffffffffffffffffffffffffffffffffffff167f8be0079c531659141344cd1fd0a4f28419497f9722a3daafe3b4186f6b6457e060405160405180910390a35050565b82805461041b906107f3565b90600052602060002090601f01602090048101928261043d5760008555610484565b82601f1061045657803560ff1916838001178555610484565b82800160010185558215610484579182015b82811115610483578235825591602001919060010190610468565b5b5090506104919190610495565b5090565b5b808211156104ae576000816000905550600101610496565b5090565b6000813590506104c1816108f6565b92915050565b60008083601f8401126104dd576104dc610859565b5b8235905067ffffffffffffffff8111156104fa576104f9610854565b5b6020830191508360018202830111156105165761051561085e565b5b9250929050565b60006020828403121561053357610532610868565b5b6000610541848285016104b2565b91505092915050565b6000806020838503121561056157610560610868565b5b600083013567ffffffffffffffff81111561057f5761057e610863565b5b61058b858286016104c7565b92509250509250929050565b6105a08161078e565b82525050565b60006105b182610767565b6105bb8185610772565b93506105cb8185602086016107c0565b6105d48161086d565b840191505092915050565b600081546105ec816107f3565b6105f68186610783565b94506001821660008114610611576001811461062257610655565b60ff19831686528186019350610655565b61062b85610752565b60005b8381101561064d5781548189015260018201915060208101905061062e565b838801955050505b50505092915050565b600061066b602683610772565b91506106768261087e565b604082019050919050565b600061068e602083610772565b9150610699826108cd565b602082019050919050565b60006106b082866105df565b91506106bc82856105df565b91506106c882846105df565b9150819050949350505050565b60006020820190506106ea6000830184610597565b92915050565b6000602082019050818103600083015261070a81846105a6565b905092915050565b6000602082019050818103600083015261072b8161065e565b9050919050565b6000602082019050818103600083015261074b81610681565b9050919050565b60008190508160005260206000209050919050565b600081519050919050565b600082825260208201905092915050565b600081905092915050565b6000610799826107a0565b9050919050565b600073ffffffffffffffffffffffffffffffffffffffff82169050919050565b60005b838110156107de5780820151818401526020810190506107c3565b838111156107ed576000848401525b50505050565b6000600282049050600182168061080b57607f821691505b6020821081141561081f5761081e610825565b5b50919050565b7f4e487b7100000000000000000000000000000000000000000000000000000000600052602260045260246000fd5b600080fd5b600080fd5b600080fd5b600080fd5b600080fd5b6000601f19601f8301169050919050565b7f4f776e61626c653a206e6577206f776e657220697320746865207a65726f206160008201527f6464726573730000000000000000000000000000000000000000000000000000602082015250565b7f4f776e61626c653a2063616c6c6572206973206e6f7420746865206f776e6572600082015250565b6108ff8161078e565b811461090a57600080fd5b5056fea2646970667358221220501bb22916ced412180069a89fada006529e7054d08d704342d79d7ed6c1aa9d64736f6c63430008070033",
  "immutableReferences": {},
  "source": "// SPDX-License-Identifier: MIT\npragma solidity >=0.4.22 <0.9.0;\n\nimport \"@openzeppelin/contracts/access/Ownable.sol\";\n\ncontract Hello is Ownable {\n  string private _greeting = \"Hello\";\n  string private _sep = \", \";\n  string private _greetie = \"World!\";\n\n  function greet() external view returns (string memory) {\n    return string(abi.encodePacked(_greeting, _sep, _greetie));\n  }\n  // calldata is what is passed in exterally\n  // onlyOwner is from openzeppelin contract thatt restricts callability to the owner\n  function setGreetie(string calldata _newGreetie) external onlyOwner {\n    _greetie = _newGreetie;\n  }\n}\n",
  "sourcePath": "/Users/jmoussa/projects/web3/solidity-svelte/contracts/Hello.sol",
  "compiler": {
    "name": "solc",
    "version": "0.8.7+commit.e28d00a7.Emscripten.clang"
  },
  "schemaVersion": "3.4.3",
  "updatedAt": "2021-11-13T16:16:50.459Z",
  "networkType": "ethereum",
  "devdoc": {
    "kind": "dev",
    "methods": {
      "owner()": {
        "details": "Returns the address of the current owner."
      },
      "renounceOwnership()": {
        "details": "Leaves the contract without owner. It will not be possible to call `onlyOwner` functions anymore. Can only be called by the current owner. NOTE: Renouncing ownership will leave the contract without an owner, thereby removing any functionality that is only available to the owner."
      },
      "transferOwnership(address)": {
        "details": "Transfers ownership of the contract to a new account (`newOwner`). Can only be called by the current owner."
      }
    },
    "version": 1
  },
  "userdoc": {
    "kind": "user",
    "methods": {},
    "version": 1
  }
}